{
  "_format": "hh-sol-artifact-1",
  "contractName": "Scholarship",
  "sourceName": "contracts/Scholarship.sol",
  "abi": [
    {
      "inputs": [
        {
          "internalType": "address",
          "name": "_multiSig",
          "type": "address"
        }
      ],
      "stateMutability": "payable",
      "type": "constructor"
    },
    {
      "anonymous": false,
      "inputs": [
        {
          "indexed": false,
          "internalType": "uint256",
          "name": "id",
          "type": "uint256"
        }
      ],
      "name": "ApplicationApproved",
      "type": "event"
    },
    {
      "anonymous": false,
      "inputs": [
        {
          "indexed": false,
          "internalType": "uint256",
          "name": "id",
          "type": "uint256"
        },
        {
          "indexed": false,
          "internalType": "address",
          "name": "applicant",
          "type": "address"
        },
        {
          "indexed": false,
          "internalType": "uint256",
          "name": "amount",
          "type": "uint256"
        }
      ],
      "name": "ApplicationSubmitted",
      "type": "event"
    },
    {
      "anonymous": false,
      "inputs": [
        {
          "indexed": false,
          "internalType": "uint256",
          "name": "id",
          "type": "uint256"
        },
        {
          "indexed": false,
          "internalType": "address",
          "name": "to",
          "type": "address"
        },
        {
          "indexed": false,
          "internalType": "uint256",
          "name": "amount",
          "type": "uint256"
        }
      ],
      "name": "FundsDisbursed",
      "type": "event"
    },
    {
      "inputs": [],
      "name": "adminMultiSig",
      "outputs": [
        {
          "internalType": "address",
          "name": "",
          "type": "address"
        }
      ],
      "stateMutability": "view",
      "type": "function"
    },
    {
      "inputs": [
        {
          "internalType": "uint256",
          "name": "",
          "type": "uint256"
        }
      ],
      "name": "applications",
      "outputs": [
        {
          "internalType": "uint256",
          "name": "id",
          "type": "uint256"
        },
        {
          "internalType": "address payable",
          "name": "applicant",
          "type": "address"
        },
        {
          "internalType": "string",
          "name": "studentId",
          "type": "string"
        },
        {
          "internalType": "string",
          "name": "name",
          "type": "string"
        },
        {
          "internalType": "uint256",
          "name": "amountRequested",
          "type": "uint256"
        },
        {
          "internalType": "bool",
          "name": "approved",
          "type": "bool"
        },
        {
          "internalType": "bool",
          "name": "disbursed",
          "type": "bool"
        }
      ],
      "stateMutability": "view",
      "type": "function"
    },
    {
      "inputs": [
        {
          "internalType": "uint256",
          "name": "id",
          "type": "uint256"
        }
      ],
      "name": "approveApplication",
      "outputs": [],
      "stateMutability": "nonpayable",
      "type": "function"
    },
    {
      "inputs": [
        {
          "internalType": "uint256",
          "name": "id",
          "type": "uint256"
        }
      ],
      "name": "disburse",
      "outputs": [],
      "stateMutability": "nonpayable",
      "type": "function"
    },
    {
      "inputs": [
        {
          "internalType": "uint256",
          "name": "id",
          "type": "uint256"
        }
      ],
      "name": "getApplication",
      "outputs": [
        {
          "components": [
            {
              "internalType": "uint256",
              "name": "id",
              "type": "uint256"
            },
            {
              "internalType": "address payable",
              "name": "applicant",
              "type": "address"
            },
            {
              "internalType": "string",
              "name": "studentId",
              "type": "string"
            },
            {
              "internalType": "string",
              "name": "name",
              "type": "string"
            },
            {
              "internalType": "uint256",
              "name": "amountRequested",
              "type": "uint256"
            },
            {
              "internalType": "bool",
              "name": "approved",
              "type": "bool"
            },
            {
              "internalType": "bool",
              "name": "disbursed",
              "type": "bool"
            }
          ],
          "internalType": "struct Scholarship.Application",
          "name": "",
          "type": "tuple"
        }
      ],
      "stateMutability": "view",
      "type": "function"
    },
    {
      "inputs": [],
      "name": "nextApplicationId",
      "outputs": [
        {
          "internalType": "uint256",
          "name": "",
          "type": "uint256"
        }
      ],
      "stateMutability": "view",
      "type": "function"
    },
    {
      "inputs": [],
      "name": "owner",
      "outputs": [
        {
          "internalType": "address",
          "name": "",
          "type": "address"
        }
      ],
      "stateMutability": "view",
      "type": "function"
    },
    {
      "inputs": [
        {
          "internalType": "string",
          "name": "studentId",
          "type": "string"
        },
        {
          "internalType": "string",
          "name": "name",
          "type": "string"
        },
        {
          "internalType": "uint256",
          "name": "amountRequested",
          "type": "uint256"
        }
      ],
      "name": "submitApplication",
      "outputs": [],
      "stateMutability": "nonpayable",
      "type": "function"
    },
    {
      "stateMutability": "payable",
      "type": "receive"
    }
  ],
  "bytecode": "0x608060405260405162001aad38038062001aad833981810160405281019062000029919062000123565b33600160006101000a81548173ffffffffffffffffffffffffffffffffffffffff021916908373ffffffffffffffffffffffffffffffffffffffff160217905550806000806101000a81548173ffffffffffffffffffffffffffffffffffffffff021916908373ffffffffffffffffffffffffffffffffffffffff16021790555060016002819055505062000155565b600080fd5b600073ffffffffffffffffffffffffffffffffffffffff82169050919050565b6000620000eb82620000be565b9050919050565b620000fd81620000de565b81146200010957600080fd5b50565b6000815190506200011d81620000f2565b92915050565b6000602082840312156200013c576200013b620000b9565b5b60006200014c848285016200010c565b91505092915050565b61194880620001656000396000f3fe60806040526004361061007f5760003560e01c8063625338cb1161004e578063625338cb146101455780638da5cb5b14610170578063bd77ac2c1461019b578063dfefadff146101c457610086565b80631b19ee921461008b5780631f2f4bfd146100b4578063213fbf1b146100f157806345c6a8741461011a57610086565b3661008657005b600080fd5b34801561009757600080fd5b506100b260048036038101906100ad9190610d9e565b610207565b005b3480156100c057600080fd5b506100db60048036038101906100d69190610e33565b61045c565b6040516100e89190610ffe565b60405180910390f35b3480156100fd57600080fd5b5061011860048036038101906101139190610e33565b61064d565b005b34801561012657600080fd5b5061012f6107ec565b60405161013c9190611041565b60405180910390f35b34801561015157600080fd5b5061015a610810565b604051610167919061106b565b60405180910390f35b34801561017c57600080fd5b50610185610816565b6040516101929190611041565b60405180910390f35b3480156101a757600080fd5b506101c260048036038101906101bd9190610e33565b61083c565b005b3480156101d057600080fd5b506101eb60048036038101906101e69190610e33565b610b16565b6040516101fe97969594939291906110ee565b60405180910390f35b6000811161024a576040517f08c379a0000000000000000000000000000000000000000000000000000000008152600401610241906111b7565b60405180910390fd5b60006002600081548092919061025f90611206565b9190505590506040518060e001604052808281526020013373ffffffffffffffffffffffffffffffffffffffff16815260200187878080601f016020809104026020016040519081016040528093929190818152602001838380828437600081840152601f19601f82011690508083019250505050505050815260200185858080601f016020809104026020016040519081016040528093929190818152602001838380828437600081840152601f19601f82011690508083019250505050505050815260200183815260200160001515815260200160001515815250600360008381526020019081526020016000206000820151816000015560208201518160010160006101000a81548173ffffffffffffffffffffffffffffffffffffffff021916908373ffffffffffffffffffffffffffffffffffffffff16021790555060408201518160020190816103b59190611489565b5060608201518160030190816103cb9190611489565b506080820151816004015560a08201518160050160006101000a81548160ff02191690831515021790555060c08201518160050160016101000a81548160ff0219169083151502179055509050507fdb0b522b8234f730c26780fc877f0d063689be4bc7d6aacb12b40df8440eb04381338460405161044c9392919061155b565b60405180910390a1505050505050565b610464610ca2565b600360008381526020019081526020016000206040518060e0016040529081600082015481526020016001820160009054906101000a900473ffffffffffffffffffffffffffffffffffffffff1673ffffffffffffffffffffffffffffffffffffffff1673ffffffffffffffffffffffffffffffffffffffff1681526020016002820180546104f2906112ac565b80601f016020809104026020016040519081016040528092919081815260200182805461051e906112ac565b801561056b5780601f106105405761010080835404028352916020019161056b565b820191906000526020600020905b81548152906001019060200180831161054e57829003601f168201915b50505050508152602001600382018054610584906112ac565b80601f01602080910402602001604051908101604052809291908181526020018280546105b0906112ac565b80156105fd5780601f106105d2576101008083540402835291602001916105fd565b820191906000526020600020905b8154815290600101906020018083116105e057829003601f168201915b50505050508152602001600482015481526020016005820160009054906101000a900460ff161515151581526020016005820160019054906101000a900460ff1615151515815250509050919050565b60008111801561065e575060025481105b61069d576040517f08c379a0000000000000000000000000000000000000000000000000000000008152600401610694906115de565b60405180910390fd5b60008054906101000a900473ffffffffffffffffffffffffffffffffffffffff1673ffffffffffffffffffffffffffffffffffffffff163373ffffffffffffffffffffffffffffffffffffffff161461072b576040517f08c379a00000000000000000000000000000000000000000000000000000000081526004016107229061164a565b60405180910390fd5b60006003600083815260200190815260200160002090508060050160009054906101000a900460ff1615610794576040517f08c379a000000000000000000000000000000000000000000000000000000000815260040161078b906116b6565b60405180910390fd5b60018160050160006101000a81548160ff0219169083151502179055507f18592c970423719446e8cd1db0f88689331b2c81690e4d59376e8481e36b65ee826040516107e0919061106b565b60405180910390a15050565b60008054906101000a900473ffffffffffffffffffffffffffffffffffffffff1681565b60025481565b600160009054906101000a900473ffffffffffffffffffffffffffffffffffffffff1681565b60006003600083815260200190815260200160002090508060050160009054906101000a900460ff166108a4576040517f08c379a000000000000000000000000000000000000000000000000000000000815260040161089b90611722565b60405180910390fd5b8060050160019054906101000a900460ff16156108f6576040517f08c379a00000000000000000000000000000000000000000000000000000000081526004016108ed9061178e565b60405180910390fd5b806004015447101561093d576040517f08c379a0000000000000000000000000000000000000000000000000000000008152600401610934906117fa565b60405180910390fd5b60008054906101000a900473ffffffffffffffffffffffffffffffffffffffff1673ffffffffffffffffffffffffffffffffffffffff163373ffffffffffffffffffffffffffffffffffffffff1614806109e45750600160009054906101000a900473ffffffffffffffffffffffffffffffffffffffff1673ffffffffffffffffffffffffffffffffffffffff163373ffffffffffffffffffffffffffffffffffffffff16145b610a23576040517f08c379a0000000000000000000000000000000000000000000000000000000008152600401610a1a90611866565b60405180910390fd5b60018160050160016101000a81548160ff0219169083151502179055508060010160009054906101000a900473ffffffffffffffffffffffffffffffffffffffff1673ffffffffffffffffffffffffffffffffffffffff166108fc82600401549081150290604051600060405180830381858888f19350505050158015610aae573d6000803e3d6000fd5b507feb2cd132972ac2f1b1b2806265483bfbe1a6c39df51e7a855c258ecd12fd1c44828260010160009054906101000a900473ffffffffffffffffffffffffffffffffffffffff168360040154604051610b0a939291906118db565b60405180910390a15050565b60036020528060005260406000206000915090508060000154908060010160009054906101000a900473ffffffffffffffffffffffffffffffffffffffff1690806002018054610b65906112ac565b80601f0160208091040260200160405190810160405280929190818152602001828054610b91906112ac565b8015610bde5780601f10610bb357610100808354040283529160200191610bde565b820191906000526020600020905b815481529060010190602001808311610bc157829003601f168201915b505050505090806003018054610bf3906112ac565b80601f0160208091040260200160405190810160405280929190818152602001828054610c1f906112ac565b8015610c6c5780601f10610c4157610100808354040283529160200191610c6c565b820191906000526020600020905b815481529060010190602001808311610c4f57829003601f168201915b5050505050908060040154908060050160009054906101000a900460ff16908060050160019054906101000a900460ff16905087565b6040518060e0016040528060008152602001600073ffffffffffffffffffffffffffffffffffffffff1681526020016060815260200160608152602001600081526020016000151581526020016000151581525090565b600080fd5b600080fd5b600080fd5b600080fd5b600080fd5b60008083601f840112610d2857610d27610d03565b5b8235905067ffffffffffffffff811115610d4557610d44610d08565b5b602083019150836001820283011115610d6157610d60610d0d565b5b9250929050565b6000819050919050565b610d7b81610d68565b8114610d8657600080fd5b50565b600081359050610d9881610d72565b92915050565b600080600080600060608688031215610dba57610db9610cf9565b5b600086013567ffffffffffffffff811115610dd857610dd7610cfe565b5b610de488828901610d12565b9550955050602086013567ffffffffffffffff811115610e0757610e06610cfe565b5b610e1388828901610d12565b93509350506040610e2688828901610d89565b9150509295509295909350565b600060208284031215610e4957610e48610cf9565b5b6000610e5784828501610d89565b91505092915050565b610e6981610d68565b82525050565b600073ffffffffffffffffffffffffffffffffffffffff82169050919050565b6000610e9a82610e6f565b9050919050565b610eaa81610e8f565b82525050565b600081519050919050565b600082825260208201905092915050565b60005b83811015610eea578082015181840152602081019050610ecf565b60008484015250505050565b6000601f19601f8301169050919050565b6000610f1282610eb0565b610f1c8185610ebb565b9350610f2c818560208601610ecc565b610f3581610ef6565b840191505092915050565b60008115159050919050565b610f5581610f40565b82525050565b600060e083016000830151610f736000860182610e60565b506020830151610f866020860182610ea1565b5060408301518482036040860152610f9e8282610f07565b91505060608301518482036060860152610fb88282610f07565b9150506080830151610fcd6080860182610e60565b5060a0830151610fe060a0860182610f4c565b5060c0830151610ff360c0860182610f4c565b508091505092915050565b600060208201905081810360008301526110188184610f5b565b905092915050565b600061102b82610e6f565b9050919050565b61103b81611020565b82525050565b60006020820190506110566000830184611032565b92915050565b61106581610d68565b82525050565b6000602082019050611080600083018461105c565b92915050565b61108f81610e8f565b82525050565b600082825260208201905092915050565b60006110b182610eb0565b6110bb8185611095565b93506110cb818560208601610ecc565b6110d481610ef6565b840191505092915050565b6110e881610f40565b82525050565b600060e082019050611103600083018a61105c565b6111106020830189611086565b818103604083015261112281886110a6565b9050818103606083015261113681876110a6565b9050611145608083018661105c565b61115260a08301856110df565b61115f60c08301846110df565b98975050505050505050565b7f416d6f756e74206d757374206265203e20300000000000000000000000000000600082015250565b60006111a1601283611095565b91506111ac8261116b565b602082019050919050565b600060208201905081810360008301526111d081611194565b9050919050565b7f4e487b7100000000000000000000000000000000000000000000000000000000600052601160045260246000fd5b600061121182610d68565b91507fffffffffffffffffffffffffffffffffffffffffffffffffffffffffffffffff8203611243576112426111d7565b5b600182019050919050565b7f4e487b7100000000000000000000000000000000000000000000000000000000600052604160045260246000fd5b7f4e487b7100000000000000000000000000000000000000000000000000000000600052602260045260246000fd5b600060028204905060018216806112c457607f821691505b6020821081036112d7576112d661127d565b5b50919050565b60008190508160005260206000209050919050565b60006020601f8301049050919050565b600082821b905092915050565b60006008830261133f7fffffffffffffffffffffffffffffffffffffffffffffffffffffffffffffffff82611302565b6113498683611302565b95508019841693508086168417925050509392505050565b6000819050919050565b600061138661138161137c84610d68565b611361565b610d68565b9050919050565b6000819050919050565b6113a08361136b565b6113b46113ac8261138d565b84845461130f565b825550505050565b600090565b6113c96113bc565b6113d4818484611397565b505050565b5b818110156113f8576113ed6000826113c1565b6001810190506113da565b5050565b601f82111561143d5761140e816112dd565b611417846112f2565b81016020851015611426578190505b61143a611432856112f2565b8301826113d9565b50505b505050565b600082821c905092915050565b600061146060001984600802611442565b1980831691505092915050565b6000611479838361144f565b9150826002028217905092915050565b61149282610eb0565b67ffffffffffffffff8111156114ab576114aa61124e565b5b6114b582546112ac565b6114c08282856113fc565b600060209050601f8311600181146114f357600084156114e1578287015190505b6114eb858261146d565b865550611553565b601f198416611501866112dd565b60005b8281101561152957848901518255600182019150602085019450602081019050611504565b868310156115465784890151611542601f89168261144f565b8355505b6001600288020188555050505b505050505050565b6000606082019050611570600083018661105c565b61157d6020830185611032565b61158a604083018461105c565b949350505050565b7f496e76616c696420696400000000000000000000000000000000000000000000600082015250565b60006115c8600a83611095565b91506115d382611592565b602082019050919050565b600060208201905081810360008301526115f7816115bb565b9050919050565b7f4f6e6c79206d756c746973696700000000000000000000000000000000000000600082015250565b6000611634600d83611095565b915061163f826115fe565b602082019050919050565b6000602082019050818103600083015261166381611627565b9050919050565b7f416c726561647920617070726f76656400000000000000000000000000000000600082015250565b60006116a0601083611095565b91506116ab8261166a565b602082019050919050565b600060208201905081810360008301526116cf81611693565b9050919050565b7f4e6f7420617070726f7665640000000000000000000000000000000000000000600082015250565b600061170c600c83611095565b9150611717826116d6565b602082019050919050565b6000602082019050818103600083015261173b816116ff565b9050919050565b7f416c726561647920646973627572736564000000000000000000000000000000600082015250565b6000611778601183611095565b915061178382611742565b602082019050919050565b600060208201905081810360008301526117a78161176b565b9050919050565b7f496e73756666696369656e7420636f6e74726163742062616c616e6365000000600082015250565b60006117e4601d83611095565b91506117ef826117ae565b602082019050919050565b60006020820190508181036000830152611813816117d7565b9050919050565b7f4e6f7420617574686f72697a656420746f206469736275727365000000000000600082015250565b6000611850601a83611095565b915061185b8261181a565b602082019050919050565b6000602082019050818103600083015261187f81611843565b9050919050565b60006118a161189c61189784610e6f565b611361565b610e6f565b9050919050565b60006118b382611886565b9050919050565b60006118c5826118a8565b9050919050565b6118d5816118ba565b82525050565b60006060820190506118f0600083018661105c565b6118fd60208301856118cc565b61190a604083018461105c565b94935050505056fea26469706673582212206987fc27f224361978b04210f19dbbe42e0c0b31d95ef88e03004de55a004adc64736f6c63430008110033",
  "linkReferences": {},
  "deployedLinkReferences": {}
}