{
  "_format": "hh-sol-artifact-1",
  "contractName": "SimpleMultiSig",
  "sourceName": "contracts/SimpleMultiSig.sol",
  "abi": [
    {
      "inputs": [
        {
          "internalType": "address[]",
          "name": "_owners",
          "type": "address[]"
        },
        {
          "internalType": "uint256",
          "name": "_required",
          "type": "uint256"
        }
      ],
      "stateMutability": "nonpayable",
      "type": "constructor"
    },
    {
      "anonymous": false,
      "inputs": [
        {
          "indexed": true,
          "internalType": "address",
          "name": "owner",
          "type": "address"
        },
        {
          "indexed": true,
          "internalType": "uint256",
          "name": "txIndex",
          "type": "uint256"
        }
      ],
      "name": "ConfirmTransaction",
      "type": "event"
    },
    {
      "anonymous": false,
      "inputs": [
        {
          "indexed": true,
          "internalType": "address",
          "name": "sender",
          "type": "address"
        },
        {
          "indexed": false,
          "internalType": "uint256",
          "name": "amount",
          "type": "uint256"
        }
      ],
      "name": "Deposit",
      "type": "event"
    },
    {
      "anonymous": false,
      "inputs": [
        {
          "indexed": true,
          "internalType": "address",
          "name": "owner",
          "type": "address"
        },
        {
          "indexed": true,
          "internalType": "uint256",
          "name": "txIndex",
          "type": "uint256"
        }
      ],
      "name": "ExecuteTransaction",
      "type": "event"
    },
    {
      "anonymous": false,
      "inputs": [
        {
          "indexed": true,
          "internalType": "address",
          "name": "owner",
          "type": "address"
        },
        {
          "indexed": true,
          "internalType": "uint256",
          "name": "txIndex",
          "type": "uint256"
        },
        {
          "indexed": true,
          "internalType": "address",
          "name": "to",
          "type": "address"
        },
        {
          "indexed": false,
          "internalType": "uint256",
          "name": "value",
          "type": "uint256"
        },
        {
          "indexed": false,
          "internalType": "bytes",
          "name": "data",
          "type": "bytes"
        }
      ],
      "name": "SubmitTransaction",
      "type": "event"
    },
    {
      "inputs": [
        {
          "internalType": "uint256",
          "name": "txIndex",
          "type": "uint256"
        }
      ],
      "name": "confirmTransaction",
      "outputs": [],
      "stateMutability": "nonpayable",
      "type": "function"
    },
    {
      "inputs": [],
      "name": "getOwners",
      "outputs": [
        {
          "internalType": "address[]",
          "name": "",
          "type": "address[]"
        }
      ],
      "stateMutability": "view",
      "type": "function"
    },
    {
      "inputs": [],
      "name": "getTransactionCount",
      "outputs": [
        {
          "internalType": "uint256",
          "name": "",
          "type": "uint256"
        }
      ],
      "stateMutability": "view",
      "type": "function"
    },
    {
      "inputs": [
        {
          "internalType": "uint256",
          "name": "",
          "type": "uint256"
        },
        {
          "internalType": "address",
          "name": "",
          "type": "address"
        }
      ],
      "name": "isConfirmed",
      "outputs": [
        {
          "internalType": "bool",
          "name": "",
          "type": "bool"
        }
      ],
      "stateMutability": "view",
      "type": "function"
    },
    {
      "inputs": [
        {
          "internalType": "address",
          "name": "",
          "type": "address"
        }
      ],
      "name": "isOwner",
      "outputs": [
        {
          "internalType": "bool",
          "name": "",
          "type": "bool"
        }
      ],
      "stateMutability": "view",
      "type": "function"
    },
    {
      "inputs": [
        {
          "internalType": "uint256",
          "name": "",
          "type": "uint256"
        }
      ],
      "name": "owners",
      "outputs": [
        {
          "internalType": "address",
          "name": "",
          "type": "address"
        }
      ],
      "stateMutability": "view",
      "type": "function"
    },
    {
      "inputs": [],
      "name": "required",
      "outputs": [
        {
          "internalType": "uint256",
          "name": "",
          "type": "uint256"
        }
      ],
      "stateMutability": "view",
      "type": "function"
    },
    {
      "inputs": [
        {
          "internalType": "address",
          "name": "to",
          "type": "address"
        },
        {
          "internalType": "uint256",
          "name": "value",
          "type": "uint256"
        },
        {
          "internalType": "bytes",
          "name": "data",
          "type": "bytes"
        }
      ],
      "name": "submitTransaction",
      "outputs": [],
      "stateMutability": "nonpayable",
      "type": "function"
    },
    {
      "inputs": [
        {
          "internalType": "uint256",
          "name": "",
          "type": "uint256"
        }
      ],
      "name": "transactions",
      "outputs": [
        {
          "internalType": "address",
          "name": "to",
          "type": "address"
        },
        {
          "internalType": "uint256",
          "name": "value",
          "type": "uint256"
        },
        {
          "internalType": "bytes",
          "name": "data",
          "type": "bytes"
        },
        {
          "internalType": "bool",
          "name": "executed",
          "type": "bool"
        },
        {
          "internalType": "uint256",
          "name": "confirmations",
          "type": "uint256"
        }
      ],
      "stateMutability": "view",
      "type": "function"
    },
    {
      "stateMutability": "payable",
      "type": "receive"
    }
  ],
  "bytecode": "0x60806040523480156200001157600080fd5b5060405162001f8338038062001f8383398181016040528101906200003791906200050d565b60008251116200007e576040517f08c379a00000000000000000000000000000000000000000000000000000000081526004016200007590620005d4565b60405180910390fd5b60008111801562000090575081518111155b620000d2576040517f08c379a0000000000000000000000000000000000000000000000000000000008152600401620000c99062000646565b60405180910390fd5b60005b8251811015620002d4576000838281518110620000f757620000f662000668565b5b60200260200101519050600073ffffffffffffffffffffffffffffffffffffffff168173ffffffffffffffffffffffffffffffffffffffff160362000173576040517f08c379a00000000000000000000000000000000000000000000000000000000081526004016200016a90620006e7565b60405180910390fd5b600160008273ffffffffffffffffffffffffffffffffffffffff1673ffffffffffffffffffffffffffffffffffffffff16815260200190815260200160002060009054906101000a900460ff161562000203576040517f08c379a0000000000000000000000000000000000000000000000000000000008152600401620001fa9062000759565b60405180910390fd5b60018060008373ffffffffffffffffffffffffffffffffffffffff1673ffffffffffffffffffffffffffffffffffffffff16815260200190815260200160002060006101000a81548160ff0219169083151502179055506000819080600181540180825580915050600190039060005260206000200160009091909190916101000a81548173ffffffffffffffffffffffffffffffffffffffff021916908373ffffffffffffffffffffffffffffffffffffffff160217905550508080620002cb90620007aa565b915050620000d5565b50806002819055505050620007f7565b6000604051905090565b600080fd5b600080fd5b600080fd5b6000601f19601f8301169050919050565b7f4e487b7100000000000000000000000000000000000000000000000000000000600052604160045260246000fd5b6200034882620002fd565b810181811067ffffffffffffffff821117156200036a57620003696200030e565b5b80604052505050565b60006200037f620002e4565b90506200038d82826200033d565b919050565b600067ffffffffffffffff821115620003b057620003af6200030e565b5b602082029050602081019050919050565b600080fd5b600073ffffffffffffffffffffffffffffffffffffffff82169050919050565b6000620003f382620003c6565b9050919050565b6200040581620003e6565b81146200041157600080fd5b50565b6000815190506200042581620003fa565b92915050565b6000620004426200043c8462000392565b62000373565b90508083825260208201905060208402830185811115620004685762000467620003c1565b5b835b8181101562000495578062000480888262000414565b8452602084019350506020810190506200046a565b5050509392505050565b600082601f830112620004b757620004b6620002f8565b5b8151620004c98482602086016200042b565b91505092915050565b6000819050919050565b620004e781620004d2565b8114620004f357600080fd5b50565b6000815190506200050781620004dc565b92915050565b60008060408385031215620005275762000526620002ee565b5b600083015167ffffffffffffffff811115620005485762000547620002f3565b5b62000556858286016200049f565b92505060206200056985828601620004f6565b9150509250929050565b600082825260208201905092915050565b7f4f776e6572732072657175697265640000000000000000000000000000000000600082015250565b6000620005bc600f8362000573565b9150620005c98262000584565b602082019050919050565b60006020820190508181036000830152620005ef81620005ad565b9050919050565b7f496e76616c696420726571756972656420636f756e7400000000000000000000600082015250565b60006200062e60168362000573565b91506200063b82620005f6565b602082019050919050565b6000602082019050818103600083015262000661816200061f565b9050919050565b7f4e487b7100000000000000000000000000000000000000000000000000000000600052603260045260246000fd5b7f496e76616c6964206f776e657200000000000000000000000000000000000000600082015250565b6000620006cf600d8362000573565b9150620006dc8262000697565b602082019050919050565b600060208201905081810360008301526200070281620006c0565b9050919050565b7f4f776e6572206e6f7420756e6971756500000000000000000000000000000000600082015250565b60006200074160108362000573565b91506200074e8262000709565b602082019050919050565b60006020820190508181036000830152620007748162000732565b9050919050565b7f4e487b7100000000000000000000000000000000000000000000000000000000600052601160045260246000fd5b6000620007b782620004d2565b91507fffffffffffffffffffffffffffffffffffffffffffffffffffffffffffffffff8203620007ec57620007eb6200077b565b5b600182019050919050565b61177c80620008076000396000f3fe60806040526004361061008a5760003560e01c80639ace38c2116100595780639ace38c2146101c6578063a0e67e2b14610207578063c01a8c8414610232578063c64274741461025b578063dc8452cd14610284576100df565b8063025e7c27146100e45780632e7700f0146101215780632f54bf6e1461014c57806380f59a6514610189576100df565b366100df573373ffffffffffffffffffffffffffffffffffffffff167fe1fffcc4923d04b559f4d29a8bfc6cda04eb5b0d3c460751c2402c5c5cc9109c346040516100d59190610b7f565b60405180910390a2005b600080fd5b3480156100f057600080fd5b5061010b60048036038101906101069190610bda565b6102af565b6040516101189190610c48565b60405180910390f35b34801561012d57600080fd5b506101366102ee565b6040516101439190610b7f565b60405180910390f35b34801561015857600080fd5b50610173600480360381019061016e9190610c8f565b6102fb565b6040516101809190610cd7565b60405180910390f35b34801561019557600080fd5b506101b060048036038101906101ab9190610cf2565b61031b565b6040516101bd9190610cd7565b60405180910390f35b3480156101d257600080fd5b506101ed60048036038101906101e89190610bda565b61034a565b6040516101fe959493929190610dc2565b60405180910390f35b34801561021357600080fd5b5061021c610445565b6040516102299190610eda565b60405180910390f35b34801561023e57600080fd5b5061025960048036038101906102549190610bda565b6104d3565b005b34801561026757600080fd5b50610282600480360381019061027d9190611031565b6107a0565b005b34801561029057600080fd5b506102996109a9565b6040516102a69190610b7f565b60405180910390f35b600081815481106102bf57600080fd5b906000526020600020016000915054906101000a900473ffffffffffffffffffffffffffffffffffffffff1681565b6000600380549050905090565b60016020528060005260406000206000915054906101000a900460ff1681565b60046020528160005260406000206020528060005260406000206000915091509054906101000a900460ff1681565b6003818154811061035a57600080fd5b90600052602060002090600502016000915090508060000160009054906101000a900473ffffffffffffffffffffffffffffffffffffffff16908060010154908060020180546103a9906110cf565b80601f01602080910402602001604051908101604052809291908181526020018280546103d5906110cf565b80156104225780601f106103f757610100808354040283529160200191610422565b820191906000526020600020905b81548152906001019060200180831161040557829003601f168201915b5050505050908060030160009054906101000a900460ff16908060040154905085565b606060008054806020026020016040519081016040528092919081815260200182805480156104c957602002820191906000526020600020905b8160009054906101000a900473ffffffffffffffffffffffffffffffffffffffff1673ffffffffffffffffffffffffffffffffffffffff168152602001906001019080831161047f575b5050505050905090565b600160003373ffffffffffffffffffffffffffffffffffffffff1673ffffffffffffffffffffffffffffffffffffffff16815260200190815260200160002060009054906101000a900460ff1661055f576040517f08c379a00000000000000000000000000000000000000000000000000000000081526004016105569061115d565b60405180910390fd5b60038054905081106105a6576040517f08c379a000000000000000000000000000000000000000000000000000000000815260040161059d906111c9565b60405180910390fd5b6000600382815481106105bc576105bb6111e9565b5b906000526020600020906005020190508060030160009054906101000a900460ff161561061e576040517f08c379a000000000000000000000000000000000000000000000000000000000815260040161061590611264565b60405180910390fd5b6004600083815260200190815260200160002060003373ffffffffffffffffffffffffffffffffffffffff1673ffffffffffffffffffffffffffffffffffffffff16815260200190815260200160002060009054906101000a900460ff16156106bc576040517f08c379a00000000000000000000000000000000000000000000000000000000081526004016106b3906112d0565b60405180910390fd5b60016004600084815260200190815260200160002060003373ffffffffffffffffffffffffffffffffffffffff1673ffffffffffffffffffffffffffffffffffffffff16815260200190815260200160002060006101000a81548160ff021916908315150217905550600181600401600082825461073a919061131f565b92505081905550813373ffffffffffffffffffffffffffffffffffffffff167f5cbe105e36805f7820e291f799d5794ff948af2a5f664e580382defb6339004160405160405180910390a360025481600401541061079c5761079b826109af565b5b5050565b600160003373ffffffffffffffffffffffffffffffffffffffff1673ffffffffffffffffffffffffffffffffffffffff16815260200190815260200160002060009054906101000a900460ff1661082c576040517f08c379a00000000000000000000000000000000000000000000000000000000081526004016108239061115d565b60405180910390fd5b60036040518060a001604052808573ffffffffffffffffffffffffffffffffffffffff1681526020018481526020018381526020016000151581526020016000815250908060018154018082558091505060019003906000526020600020906005020160009091909190915060008201518160000160006101000a81548173ffffffffffffffffffffffffffffffffffffffff021916908373ffffffffffffffffffffffffffffffffffffffff1602179055506020820151816001015560408201518160020190816108fe91906114ff565b5060608201518160030160006101000a81548160ff0219169083151502179055506080820151816004015550508273ffffffffffffffffffffffffffffffffffffffff16600160038054905061095491906115d1565b3373ffffffffffffffffffffffffffffffffffffffff167fd5a05bf70715ad82a09a756320284a1b54c9ff74cd0f8cce6219e79b563fe59d858560405161099c929190611605565b60405180910390a4505050565b60025481565b6000600382815481106109c5576109c46111e9565b5b906000526020600020906005020190508060030160009054906101000a900460ff1615610a27576040517f08c379a0000000000000000000000000000000000000000000000000000000008152600401610a1e90611264565b60405180910390fd5b60008160000160009054906101000a900473ffffffffffffffffffffffffffffffffffffffff1673ffffffffffffffffffffffffffffffffffffffff16826001015483600201604051610a7a91906116c3565b60006040518083038185875af1925050503d8060008114610ab7576040519150601f19603f3d011682016040523d82523d6000602084013e610abc565b606091505b5050905080610b00576040517f08c379a0000000000000000000000000000000000000000000000000000000008152600401610af790611726565b60405180910390fd5b60018260030160006101000a81548160ff021916908315150217905550823373ffffffffffffffffffffffffffffffffffffffff167f5445f318f4f5fcfb66592e68e0cc5822aa15664039bd5f0ffde24c5a8142b1ac60405160405180910390a3505050565b6000819050919050565b610b7981610b66565b82525050565b6000602082019050610b946000830184610b70565b92915050565b6000604051905090565b600080fd5b600080fd5b610bb781610b66565b8114610bc257600080fd5b50565b600081359050610bd481610bae565b92915050565b600060208284031215610bf057610bef610ba4565b5b6000610bfe84828501610bc5565b91505092915050565b600073ffffffffffffffffffffffffffffffffffffffff82169050919050565b6000610c3282610c07565b9050919050565b610c4281610c27565b82525050565b6000602082019050610c5d6000830184610c39565b92915050565b610c6c81610c27565b8114610c7757600080fd5b50565b600081359050610c8981610c63565b92915050565b600060208284031215610ca557610ca4610ba4565b5b6000610cb384828501610c7a565b91505092915050565b60008115159050919050565b610cd181610cbc565b82525050565b6000602082019050610cec6000830184610cc8565b92915050565b60008060408385031215610d0957610d08610ba4565b5b6000610d1785828601610bc5565b9250506020610d2885828601610c7a565b9150509250929050565b600081519050919050565b600082825260208201905092915050565b60005b83811015610d6c578082015181840152602081019050610d51565b60008484015250505050565b6000601f19601f8301169050919050565b6000610d9482610d32565b610d9e8185610d3d565b9350610dae818560208601610d4e565b610db781610d78565b840191505092915050565b600060a082019050610dd76000830188610c39565b610de46020830187610b70565b8181036040830152610df68186610d89565b9050610e056060830185610cc8565b610e126080830184610b70565b9695505050505050565b600081519050919050565b600082825260208201905092915050565b6000819050602082019050919050565b610e5181610c27565b82525050565b6000610e638383610e48565b60208301905092915050565b6000602082019050919050565b6000610e8782610e1c565b610e918185610e27565b9350610e9c83610e38565b8060005b83811015610ecd578151610eb48882610e57565b9750610ebf83610e6f565b925050600181019050610ea0565b5085935050505092915050565b60006020820190508181036000830152610ef48184610e7c565b905092915050565b600080fd5b600080fd5b7f4e487b7100000000000000000000000000000000000000000000000000000000600052604160045260246000fd5b610f3e82610d78565b810181811067ffffffffffffffff82111715610f5d57610f5c610f06565b5b80604052505050565b6000610f70610b9a565b9050610f7c8282610f35565b919050565b600067ffffffffffffffff821115610f9c57610f9b610f06565b5b610fa582610d78565b9050602081019050919050565b82818337600083830152505050565b6000610fd4610fcf84610f81565b610f66565b905082815260208101848484011115610ff057610fef610f01565b5b610ffb848285610fb2565b509392505050565b600082601f83011261101857611017610efc565b5b8135611028848260208601610fc1565b91505092915050565b60008060006060848603121561104a57611049610ba4565b5b600061105886828701610c7a565b935050602061106986828701610bc5565b925050604084013567ffffffffffffffff81111561108a57611089610ba9565b5b61109686828701611003565b9150509250925092565b7f4e487b7100000000000000000000000000000000000000000000000000000000600052602260045260246000fd5b600060028204905060018216806110e757607f821691505b6020821081036110fa576110f96110a0565b5b50919050565b600082825260208201905092915050565b7f4e6f74206f776e65720000000000000000000000000000000000000000000000600082015250565b6000611147600983611100565b915061115282611111565b602082019050919050565b600060208201905081810360008301526111768161113a565b9050919050565b7f496e76616c696420747820696e64657800000000000000000000000000000000600082015250565b60006111b3601083611100565b91506111be8261117d565b602082019050919050565b600060208201905081810360008301526111e2816111a6565b9050919050565b7f4e487b7100000000000000000000000000000000000000000000000000000000600052603260045260246000fd5b7f416c726561647920657865637574656400000000000000000000000000000000600082015250565b600061124e601083611100565b915061125982611218565b602082019050919050565b6000602082019050818103600083015261127d81611241565b9050919050565b7f416c726561647920636f6e6669726d6564000000000000000000000000000000600082015250565b60006112ba601183611100565b91506112c582611284565b602082019050919050565b600060208201905081810360008301526112e9816112ad565b9050919050565b7f4e487b7100000000000000000000000000000000000000000000000000000000600052601160045260246000fd5b600061132a82610b66565b915061133583610b66565b925082820190508082111561134d5761134c6112f0565b5b92915050565b60008190508160005260206000209050919050565b60006020601f8301049050919050565b600082821b905092915050565b6000600883026113b57fffffffffffffffffffffffffffffffffffffffffffffffffffffffffffffffff82611378565b6113bf8683611378565b95508019841693508086168417925050509392505050565b6000819050919050565b60006113fc6113f76113f284610b66565b6113d7565b610b66565b9050919050565b6000819050919050565b611416836113e1565b61142a61142282611403565b848454611385565b825550505050565b600090565b61143f611432565b61144a81848461140d565b505050565b5b8181101561146e57611463600082611437565b600181019050611450565b5050565b601f8211156114b35761148481611353565b61148d84611368565b8101602085101561149c578190505b6114b06114a885611368565b83018261144f565b50505b505050565b600082821c905092915050565b60006114d6600019846008026114b8565b1980831691505092915050565b60006114ef83836114c5565b9150826002028217905092915050565b61150882610d32565b67ffffffffffffffff81111561152157611520610f06565b5b61152b82546110cf565b611536828285611472565b600060209050601f8311600181146115695760008415611557578287015190505b61156185826114e3565b8655506115c9565b601f19841661157786611353565b60005b8281101561159f5784890151825560018201915060208501945060208101905061157a565b868310156115bc57848901516115b8601f8916826114c5565b8355505b6001600288020188555050505b505050505050565b60006115dc82610b66565b91506115e783610b66565b92508282039050818111156115ff576115fe6112f0565b5b92915050565b600060408201905061161a6000830185610b70565b818103602083015261162c8184610d89565b90509392505050565b600081905092915050565b6000815461164d816110cf565b6116578186611635565b945060018216600081146116725760018114611687576116ba565b60ff19831686528115158202860193506116ba565b61169085611353565b60005b838110156116b257815481890152600182019150602081019050611693565b838801955050505b50505092915050565b60006116cf8284611640565b915081905092915050565b7f7478206661696c65640000000000000000000000000000000000000000000000600082015250565b6000611710600983611100565b915061171b826116da565b602082019050919050565b6000602082019050818103600083015261173f81611703565b905091905056fea2646970667358221220d599262aa3e5ddd3c479d8064512ffd6ca0fd9798e7bb1d2d05fc5153e0c946f64736f6c63430008110033",
  "linkReferences": {},
  "deployedLinkReferences": {}
}